{
  "_format": "hh-sol-artifact-1",
  "contractName": "wallet_saver_queue",
  "sourceName": "contracts/wallet_saver_list_queue.sol",
  "abi": [
    {
      "inputs": [
        {
          "internalType": "uint256",
          "name": "_time_delay",
          "type": "uint256"
        },
        {
          "internalType": "address",
          "name": "_panic_address",
          "type": "address"
        }
      ],
      "stateMutability": "nonpayable",
      "type": "constructor"
    },
    {
      "inputs": [
        {
          "internalType": "address[]",
          "name": "_erc20s",
          "type": "address[]"
        }
      ],
      "name": "add_tokens",
      "outputs": [],
      "stateMutability": "nonpayable",
      "type": "function"
    },
    {
      "inputs": [
        {
          "internalType": "uint256",
          "name": "",
          "type": "uint256"
        }
      ],
      "name": "block_time_startes",
      "outputs": [
        {
          "internalType": "uint256",
          "name": "",
          "type": "uint256"
        }
      ],
      "stateMutability": "view",
      "type": "function"
    },
    {
      "inputs": [
        {
          "internalType": "address payable",
          "name": "_to",
          "type": "address"
        },
        {
          "internalType": "uint256",
          "name": "_value",
          "type": "uint256"
        },
        {
          "internalType": "bytes",
          "name": "_data",
          "type": "bytes"
        }
      ],
      "name": "execute_call",
      "outputs": [],
      "stateMutability": "payable",
      "type": "function"
    },
    {
      "inputs": [],
      "name": "owner",
      "outputs": [
        {
          "internalType": "address",
          "name": "",
          "type": "address"
        }
      ],
      "stateMutability": "view",
      "type": "function"
    },
    {
      "inputs": [],
      "name": "panic",
      "outputs": [],
      "stateMutability": "nonpayable",
      "type": "function"
    },
    {
      "inputs": [
        {
          "internalType": "address payable",
          "name": "_to",
          "type": "address"
        },
        {
          "internalType": "uint256",
          "name": "_value",
          "type": "uint256"
        },
        {
          "internalType": "bytes",
          "name": "_data",
          "type": "bytes"
        }
      ],
      "name": "queue",
      "outputs": [],
      "stateMutability": "nonpayable",
      "type": "function"
    },
    {
      "inputs": [],
      "name": "revert_all_txns",
      "outputs": [],
      "stateMutability": "nonpayable",
      "type": "function"
    },
    {
      "inputs": [
        {
          "internalType": "address payable",
          "name": "_to",
          "type": "address"
        },
        {
          "internalType": "uint256",
          "name": "_value",
          "type": "uint256"
        },
        {
          "internalType": "bytes",
          "name": "_data",
          "type": "bytes"
        }
      ],
      "name": "revert_this_txn",
      "outputs": [],
      "stateMutability": "payable",
      "type": "function"
    },
    {
      "inputs": [],
      "name": "token",
      "outputs": [
        {
          "internalType": "contract IERC20",
          "name": "",
          "type": "address"
        }
      ],
      "stateMutability": "view",
      "type": "function"
    },
    {
      "inputs": [
        {
          "internalType": "uint256",
          "name": "",
          "type": "uint256"
        }
      ],
      "name": "tx_content_hashes",
      "outputs": [
        {
          "internalType": "bytes32",
          "name": "",
          "type": "bytes32"
        }
      ],
      "stateMutability": "view",
      "type": "function"
    },
    {
      "stateMutability": "payable",
      "type": "receive"
    }
  ],
  "bytecode": "0x60806040523480156200001157600080fd5b5060405162001917380380620019178339818101604052810190620000379190620000f5565b336000806101000a81548173ffffffffffffffffffffffffffffffffffffffff021916908373ffffffffffffffffffffffffffffffffffffffff1602179055508160038190555080600460006101000a81548173ffffffffffffffffffffffffffffffffffffffff021916908373ffffffffffffffffffffffffffffffffffffffff1602179055505050620001a8565b600081519050620000d88162000174565b92915050565b600081519050620000ef816200018e565b92915050565b600080604083850312156200010957600080fd5b60006200011985828601620000de565b92505060206200012c85828601620000c7565b9150509250929050565b600062000143826200014a565b9050919050565b600073ffffffffffffffffffffffffffffffffffffffff82169050919050565b6000819050919050565b6200017f8162000136565b81146200018b57600080fd5b50565b62000199816200016a565b8114620001a557600080fd5b50565b61175f80620001b86000396000f3fe6080604052600436106100955760003560e01c80637e91f637116100595780637e91f637146101565780638da5cb5b1461017f578063b45ea764146101aa578063d4e966e2146101c1578063fc0c546a146101fe5761009c565b806316e8a869146100a15780631b6eb5e1146100bd5780634700d305146100e65780634bbaab20146100fd578063665137a91461013a5761009c565b3661009c57005b600080fd5b6100bb60048036038101906100b69190610f65565b610229565b005b3480156100c957600080fd5b506100e460048036038101906100df9190610fcc565b610410565b005b3480156100f257600080fd5b506100fb610534565b005b34801561010957600080fd5b50610124600480360381019061011f9190611036565b61084d565b604051610131919061140e565b60405180910390f35b610154600480360381019061014f9190610f65565b610871565b005b34801561016257600080fd5b5061017d60048036038101906101789190610f65565b610b9a565b005b34801561018b57600080fd5b50610194610c73565b6040516101a19190611314565b60405180910390f35b3480156101b657600080fd5b506101bf610c97565b005b3480156101cd57600080fd5b506101e860048036038101906101e39190611036565b610db4565b6040516101f59190611358565b60405180910390f35b34801561020a57600080fd5b50610213610dd8565b6040516102209190611373565b60405180910390f35b60008054906101000a900473ffffffffffffffffffffffffffffffffffffffff1673ffffffffffffffffffffffffffffffffffffffff163373ffffffffffffffffffffffffffffffffffffffff161461028157600080fd5b6000805b6002805490508160ff1610156103c25760018160ff16815481106102d2577f4e487b7100000000000000000000000000000000000000000000000000000000600052603260045260246000fd5b90600052602060002001548585856040516020016102f2939291906112af565b6040516020818303038152906040528051906020012014156103af57600060028260ff168154811061034d577f4e487b7100000000000000000000000000000000000000000000000000000000600052603260045260246000fd5b90600052602060002001819055506000801b60018260ff168154811061039c577f4e487b7100000000000000000000000000000000000000000000000000000000600052603260045260246000fd5b9060005260206000200181905550600191505b80806103ba9061160a565b915050610285565b50600115158115151461040a576040517f08c379a0000000000000000000000000000000000000000000000000000000008152600401610401906113ae565b60405180910390fd5b50505050565b60008054906101000a900473ffffffffffffffffffffffffffffffffffffffff1673ffffffffffffffffffffffffffffffffffffffff163373ffffffffffffffffffffffffffffffffffffffff161461046857600080fd5b60005b81518160ff161015610530576005828260ff16815181106104b5577f4e487b7100000000000000000000000000000000000000000000000000000000600052603260045260246000fd5b60200260200101519080600181540180825580915050600190039060005260206000200160009091909190916101000a81548173ffffffffffffffffffffffffffffffffffffffff021916908373ffffffffffffffffffffffffffffffffffffffff16021790555080806105289061160a565b91505061046b565b5050565b60008054906101000a900473ffffffffffffffffffffffffffffffffffffffff1673ffffffffffffffffffffffffffffffffffffffff163373ffffffffffffffffffffffffffffffffffffffff161461058c57600080fd5b600080600460009054906101000a900473ffffffffffffffffffffffffffffffffffffffff1673ffffffffffffffffffffffffffffffffffffffff16476040516105d5906112ff565b60006040518083038185875af1925050503d8060008114610612576040519150601f19603f3d011682016040523d82523d6000602084013e610617565b606091505b509150915060005b6005805490508160ff1610156108485760058160ff168154811061066c577f4e487b7100000000000000000000000000000000000000000000000000000000600052603260045260246000fd5b9060005260206000200160009054906101000a900473ffffffffffffffffffffffffffffffffffffffff1673ffffffffffffffffffffffffffffffffffffffff1663a9059cbb600460009054906101000a900473ffffffffffffffffffffffffffffffffffffffff1660058460ff1681548110610712577f4e487b7100000000000000000000000000000000000000000000000000000000600052603260045260246000fd5b9060005260206000200160009054906101000a900473ffffffffffffffffffffffffffffffffffffffff1673ffffffffffffffffffffffffffffffffffffffff166370a08231306040518263ffffffff1660e01b81526004016107759190611314565b60206040518083038186803b15801561078d57600080fd5b505afa1580156107a1573d6000803e3d6000fd5b505050506040513d601f19601f820116820180604052508101906107c5919061105f565b6040518363ffffffff1660e01b81526004016107e292919061132f565b602060405180830381600087803b1580156107fc57600080fd5b505af1158015610810573d6000803e3d6000fd5b505050506040513d601f19601f82011682018060405250810190610834919061100d565b5080806108409061160a565b91505061061f565b505050565b6002818154811061085d57600080fd5b906000526020600020016000915090505481565b60008054906101000a900473ffffffffffffffffffffffffffffffffffffffff1673ffffffffffffffffffffffffffffffffffffffff163373ffffffffffffffffffffffffffffffffffffffff16146108c957600080fd5b6000805b6002805490508160ff161015610b4c5760018160ff168154811061091a577f4e487b7100000000000000000000000000000000000000000000000000000000600052603260045260246000fd5b906000526020600020015485858560405160200161093a939291906112af565b604051602081830303815290604052805190602001201415610b395760035460028260ff1681548110610996577f4e487b7100000000000000000000000000000000000000000000000000000000600052603260045260246000fd5b90600052602060002001546109ab91906114dd565b42116109ec576040517f08c379a00000000000000000000000000000000000000000000000000000000081526004016109e3906113ee565b60405180910390fd5b6000808673ffffffffffffffffffffffffffffffffffffffff168686604051610a1591906112e8565b60006040518083038185875af1925050503d8060008114610a52576040519150601f19603f3d011682016040523d82523d6000602084013e610a57565b606091505b509150915081610a9c576040517f08c379a0000000000000000000000000000000000000000000000000000000008152600401610a939061138e565b60405180910390fd5b60018360ff1681548110610ad9577f4e487b7100000000000000000000000000000000000000000000000000000000600052603260045260246000fd5b906000526020600020016000905560028360ff1681548110610b24577f4e487b7100000000000000000000000000000000000000000000000000000000600052603260045260246000fd5b90600052602060002001600090556001935050505b8080610b449061160a565b9150506108cd565b506001151581151514610b94576040517f08c379a0000000000000000000000000000000000000000000000000000000008152600401610b8b906113ce565b60405180910390fd5b50505050565b60008054906101000a900473ffffffffffffffffffffffffffffffffffffffff1673ffffffffffffffffffffffffffffffffffffffff163373ffffffffffffffffffffffffffffffffffffffff1614610bf257600080fd5b60024290806001815401808255809150506001900390600052602060002001600090919091909150556001838383604051602001610c32939291906112af565b604051602081830303815290604052805190602001209080600181540180825580915050600190039060005260206000200160009091909190915055505050565b60008054906101000a900473ffffffffffffffffffffffffffffffffffffffff1681565b60008054906101000a900473ffffffffffffffffffffffffffffffffffffffff1673ffffffffffffffffffffffffffffffffffffffff163373ffffffffffffffffffffffffffffffffffffffff1614610cef57600080fd5b60005b6002805490508160ff161015610db157600060028260ff1681548110610d41577f4e487b7100000000000000000000000000000000000000000000000000000000600052603260045260246000fd5b90600052602060002001819055506000801b60018260ff1681548110610d90577f4e487b7100000000000000000000000000000000000000000000000000000000600052603260045260246000fd5b90600052602060002001819055508080610da99061160a565b915050610cf2565b50565b60018181548110610dc457600080fd5b906000526020600020016000915090505481565b600660009054906101000a900473ffffffffffffffffffffffffffffffffffffffff1681565b6000610e11610e0c8461145a565b611429565b90508083825260208201905082856020860282011115610e3057600080fd5b60005b85811015610e605781610e468882610ea8565b845260208401935060208301925050600181019050610e33565b5050509392505050565b6000610e7d610e7884611486565b611429565b905082815260208101848484011115610e9557600080fd5b610ea08482856115c8565b509392505050565b600081359050610eb7816116cd565b92915050565b600081359050610ecc816116e4565b92915050565b600082601f830112610ee357600080fd5b8135610ef3848260208601610dfe565b91505092915050565b600081519050610f0b816116fb565b92915050565b600082601f830112610f2257600080fd5b8135610f32848260208601610e6a565b91505092915050565b600081359050610f4a81611712565b92915050565b600081519050610f5f81611712565b92915050565b600080600060608486031215610f7a57600080fd5b6000610f8886828701610ebd565b9350506020610f9986828701610f3b565b925050604084013567ffffffffffffffff811115610fb657600080fd5b610fc286828701610f11565b9150509250925092565b600060208284031215610fde57600080fd5b600082013567ffffffffffffffff811115610ff857600080fd5b61100484828501610ed2565b91505092915050565b60006020828403121561101f57600080fd5b600061102d84828501610efc565b91505092915050565b60006020828403121561104857600080fd5b600061105684828501610f3b565b91505092915050565b60006020828403121561107157600080fd5b600061107f84828501610f50565b91505092915050565b61109961109482611545565b611634565b82525050565b6110a881611533565b82525050565b6110b781611563565b82525050565b60006110c8826114b6565b6110d281856114c1565b93506110e28185602086016115d7565b80840191505092915050565b6110f7816115a4565b82525050565b600061110a6020836114cc565b91507f736f6d657468696e672077656e742077726f6e67202d207478206661696c65646000830152602082019050919050565b600061114a6025836114cc565b91507f636f6e74656e7473206f6620746865207472616e73616374696f6e206e6f742060008301527f666f756e640000000000000000000000000000000000000000000000000000006020830152604082019050919050565b60006111b06000836114c1565b9150600082019050919050565b60006111ca6023836114cc565b91507f636f6e74656e7473206f6620746865207472616e73616374696f6e206368616e60008301527f67656400000000000000000000000000000000000000000000000000000000006020830152604082019050919050565b60006112306029836114cc565b91507f596f752063616e206f6e6c79206578656375746520616674657220746865207460008301527f696d652064656c617900000000000000000000000000000000000000000000006020830152604082019050919050565b6112928161158d565b82525050565b6112a96112a48261158d565b611658565b82525050565b60006112bb8286611088565b6014820191506112cb8285611298565b6020820191506112db82846110bd565b9150819050949350505050565b60006112f482846110bd565b915081905092915050565b600061130a826111a3565b9150819050919050565b6000602082019050611329600083018461109f565b92915050565b6000604082019050611344600083018561109f565b6113516020830184611289565b9392505050565b600060208201905061136d60008301846110ae565b92915050565b600060208201905061138860008301846110ee565b92915050565b600060208201905081810360008301526113a7816110fd565b9050919050565b600060208201905081810360008301526113c78161113d565b9050919050565b600060208201905081810360008301526113e7816111bd565b9050919050565b6000602082019050818103600083015261140781611223565b9050919050565b60006020820190506114236000830184611289565b92915050565b6000604051905081810181811067ffffffffffffffff821117156114505761144f611691565b5b8060405250919050565b600067ffffffffffffffff82111561147557611474611691565b5b602082029050602081019050919050565b600067ffffffffffffffff8211156114a1576114a0611691565b5b601f19601f8301169050602081019050919050565b600081519050919050565b600081905092915050565b600082825260208201905092915050565b60006114e88261158d565b91506114f38361158d565b9250827fffffffffffffffffffffffffffffffffffffffffffffffffffffffffffffffff0382111561152857611527611662565b5b828201905092915050565b600061153e8261156d565b9050919050565b60006115508261156d565b9050919050565b60008115159050919050565b6000819050919050565b600073ffffffffffffffffffffffffffffffffffffffff82169050919050565b6000819050919050565b600060ff82169050919050565b60006115af826115b6565b9050919050565b60006115c18261156d565b9050919050565b82818337600083830152505050565b60005b838110156115f55780820151818401526020810190506115da565b83811115611604576000848401525b50505050565b600061161582611597565b915060ff82141561162957611628611662565b5b600182019050919050565b600061163f82611646565b9050919050565b6000611651826116c0565b9050919050565b6000819050919050565b7f4e487b7100000000000000000000000000000000000000000000000000000000600052601160045260246000fd5b7f4e487b7100000000000000000000000000000000000000000000000000000000600052604160045260246000fd5b60008160601b9050919050565b6116d681611533565b81146116e157600080fd5b50565b6116ed81611545565b81146116f857600080fd5b50565b61170481611557565b811461170f57600080fd5b50565b61171b8161158d565b811461172657600080fd5b5056fea26469706673582212209940e4d7057be9cb3ebfbe692e1d4b526b716de279e8406ff64c6b60f7dedece64736f6c63430008000033",
  "linkReferences": {},
  "deployedLinkReferences": {}
}