{
  "_format": "hh-sol-artifact-1",
  "contractName": "wallet_saver_queue",
  "sourceName": "contracts/wallet_saver_list_queue.sol",
  "abi": [
    {
      "inputs": [
        {
          "internalType": "uint256",
          "name": "_time_delay",
          "type": "uint256"
        },
        {
          "internalType": "address",
          "name": "_panic_address",
          "type": "address"
        },
        {
          "internalType": "address[]",
          "name": "_erc20s",
          "type": "address[]"
        }
      ],
      "stateMutability": "nonpayable",
      "type": "constructor"
    },
    {
      "inputs": [
        {
          "internalType": "address[]",
          "name": "_erc20s",
          "type": "address[]"
        }
      ],
      "name": "add_tokens",
      "outputs": [],
      "stateMutability": "nonpayable",
      "type": "function"
    },
    {
      "inputs": [
        {
          "internalType": "uint256",
          "name": "",
          "type": "uint256"
        }
      ],
      "name": "block_time_startes",
      "outputs": [
        {
          "internalType": "uint256",
          "name": "",
          "type": "uint256"
        }
      ],
      "stateMutability": "view",
      "type": "function"
    },
    {
      "inputs": [
        {
          "internalType": "address payable",
          "name": "_to",
          "type": "address"
        },
        {
          "internalType": "uint256",
          "name": "_value",
          "type": "uint256"
        },
        {
          "internalType": "bytes",
          "name": "_data",
          "type": "bytes"
        }
      ],
      "name": "execute_call",
      "outputs": [],
      "stateMutability": "payable",
      "type": "function"
    },
    {
      "inputs": [],
      "name": "owner",
      "outputs": [
        {
          "internalType": "address",
          "name": "",
          "type": "address"
        }
      ],
      "stateMutability": "view",
      "type": "function"
    },
    {
      "inputs": [],
      "name": "panic",
      "outputs": [],
      "stateMutability": "nonpayable",
      "type": "function"
    },
    {
      "inputs": [
        {
          "internalType": "address payable",
          "name": "_to",
          "type": "address"
        },
        {
          "internalType": "uint256",
          "name": "_value",
          "type": "uint256"
        },
        {
          "internalType": "bytes",
          "name": "_data",
          "type": "bytes"
        }
      ],
      "name": "queue",
      "outputs": [],
      "stateMutability": "nonpayable",
      "type": "function"
    },
    {
      "inputs": [],
      "name": "revert_all_txns",
      "outputs": [],
      "stateMutability": "nonpayable",
      "type": "function"
    },
    {
      "inputs": [],
      "name": "token",
      "outputs": [
        {
          "internalType": "contract IERC20",
          "name": "",
          "type": "address"
        }
      ],
      "stateMutability": "view",
      "type": "function"
    },
    {
      "inputs": [
        {
          "internalType": "uint256",
          "name": "",
          "type": "uint256"
        }
      ],
      "name": "tx_content_hashes",
      "outputs": [
        {
          "internalType": "bytes32",
          "name": "",
          "type": "bytes32"
        }
      ],
      "stateMutability": "view",
      "type": "function"
    },
    {
      "stateMutability": "payable",
      "type": "receive"
    }
  ],
  "bytecode": "0x60806040523480156200001157600080fd5b50604051620018ba380380620018ba83398181016040528101906200003791906200025f565b336000806101000a81548173ffffffffffffffffffffffffffffffffffffffff021916908373ffffffffffffffffffffffffffffffffffffffff1602179055508260038190555081600460006101000a81548173ffffffffffffffffffffffffffffffffffffffff021916908373ffffffffffffffffffffffffffffffffffffffff1602179055508060059080519060200190620000d7929190620000e1565b50505050620003d2565b8280548282559060005260206000209081019282156200015d579160200282015b828111156200015c5782518260006101000a81548173ffffffffffffffffffffffffffffffffffffffff021916908373ffffffffffffffffffffffffffffffffffffffff1602179055509160200191906001019062000102565b5b5090506200016c919062000170565b5090565b5b808211156200018b57600081600090555060010162000171565b5090565b6000620001a6620001a08462000302565b620002ce565b90508083825260208201905082856020860282011115620001c657600080fd5b60005b85811015620001fa5781620001df888262000204565b845260208401935060208301925050600181019050620001c9565b5050509392505050565b60008151905062000215816200039e565b92915050565b600082601f8301126200022d57600080fd5b81516200023f8482602086016200018f565b91505092915050565b6000815190506200025981620003b8565b92915050565b6000806000606084860312156200027557600080fd5b6000620002858682870162000248565b9350506020620002988682870162000204565b925050604084015167ffffffffffffffff811115620002b657600080fd5b620002c4868287016200021b565b9150509250925092565b6000604051905081810181811067ffffffffffffffff82111715620002f857620002f76200036f565b5b8060405250919050565b600067ffffffffffffffff82111562000320576200031f6200036f565b5b602082029050602081019050919050565b60006200033e8262000345565b9050919050565b600073ffffffffffffffffffffffffffffffffffffffff82169050919050565b6000819050919050565b7f4e487b7100000000000000000000000000000000000000000000000000000000600052604160045260246000fd5b620003a98162000331565b8114620003b557600080fd5b50565b620003c38162000365565b8114620003cf57600080fd5b50565b6114d880620003e26000396000f3fe60806040526004361061008a5760003560e01c80637e91f637116100595780637e91f6371461012f5780638da5cb5b14610158578063b45ea76414610183578063d4e966e21461019a578063fc0c546a146101d757610091565b80631b6eb5e1146100965780634700d305146100bf5780634bbaab20146100d6578063665137a91461011357610091565b3661009157005b600080fd5b3480156100a257600080fd5b506100bd60048036038101906100b89190610dcb565b610202565b005b3480156100cb57600080fd5b506100d4610326565b005b3480156100e257600080fd5b506100fd60048036038101906100f89190610e35565b61063f565b60405161010a9190611187565b60405180910390f35b61012d60048036038101906101289190610d64565b610663565b005b34801561013b57600080fd5b5061015660048036038101906101519190610d64565b61098c565b005b34801561016457600080fd5b5061016d610a65565b60405161017a91906110ad565b60405180910390f35b34801561018f57600080fd5b50610198610a89565b005b3480156101a657600080fd5b506101c160048036038101906101bc9190610e35565b610bb3565b6040516101ce91906110f1565b60405180910390f35b3480156101e357600080fd5b506101ec610bd7565b6040516101f9919061110c565b60405180910390f35b60008054906101000a900473ffffffffffffffffffffffffffffffffffffffff1673ffffffffffffffffffffffffffffffffffffffff163373ffffffffffffffffffffffffffffffffffffffff161461025a57600080fd5b60005b81518160ff161015610322576005828260ff16815181106102a7577f4e487b7100000000000000000000000000000000000000000000000000000000600052603260045260246000fd5b60200260200101519080600181540180825580915050600190039060005260206000200160009091909190916101000a81548173ffffffffffffffffffffffffffffffffffffffff021916908373ffffffffffffffffffffffffffffffffffffffff160217905550808061031a90611383565b91505061025d565b5050565b60008054906101000a900473ffffffffffffffffffffffffffffffffffffffff1673ffffffffffffffffffffffffffffffffffffffff163373ffffffffffffffffffffffffffffffffffffffff161461037e57600080fd5b600080600460009054906101000a900473ffffffffffffffffffffffffffffffffffffffff1673ffffffffffffffffffffffffffffffffffffffff16476040516103c790611098565b60006040518083038185875af1925050503d8060008114610404576040519150601f19603f3d011682016040523d82523d6000602084013e610409565b606091505b509150915060005b6005805490508160ff16101561063a5760058160ff168154811061045e577f4e487b7100000000000000000000000000000000000000000000000000000000600052603260045260246000fd5b9060005260206000200160009054906101000a900473ffffffffffffffffffffffffffffffffffffffff1673ffffffffffffffffffffffffffffffffffffffff1663a9059cbb600460009054906101000a900473ffffffffffffffffffffffffffffffffffffffff1660058460ff1681548110610504577f4e487b7100000000000000000000000000000000000000000000000000000000600052603260045260246000fd5b9060005260206000200160009054906101000a900473ffffffffffffffffffffffffffffffffffffffff1673ffffffffffffffffffffffffffffffffffffffff166370a08231306040518263ffffffff1660e01b815260040161056791906110ad565b60206040518083038186803b15801561057f57600080fd5b505afa158015610593573d6000803e3d6000fd5b505050506040513d601f19601f820116820180604052508101906105b79190610e5e565b6040518363ffffffff1660e01b81526004016105d49291906110c8565b602060405180830381600087803b1580156105ee57600080fd5b505af1158015610602573d6000803e3d6000fd5b505050506040513d601f19601f820116820180604052508101906106269190610e0c565b50808061063290611383565b915050610411565b505050565b6002818154811061064f57600080fd5b906000526020600020016000915090505481565b60008054906101000a900473ffffffffffffffffffffffffffffffffffffffff1673ffffffffffffffffffffffffffffffffffffffff163373ffffffffffffffffffffffffffffffffffffffff16146106bb57600080fd5b6000805b6002805490508160ff16101561093e5760018160ff168154811061070c577f4e487b7100000000000000000000000000000000000000000000000000000000600052603260045260246000fd5b906000526020600020015485858560405160200161072c93929190611048565b60405160208183030381529060405280519060200120141561092b5760035460028260ff1681548110610788577f4e487b7100000000000000000000000000000000000000000000000000000000600052603260045260246000fd5b906000526020600020015461079d9190611256565b42116107de576040517f08c379a00000000000000000000000000000000000000000000000000000000081526004016107d590611167565b60405180910390fd5b6000808673ffffffffffffffffffffffffffffffffffffffff1686866040516108079190611081565b60006040518083038185875af1925050503d8060008114610844576040519150601f19603f3d011682016040523d82523d6000602084013e610849565b606091505b50915091508161088e576040517f08c379a000000000000000000000000000000000000000000000000000000000815260040161088590611127565b60405180910390fd5b60018360ff16815481106108cb577f4e487b7100000000000000000000000000000000000000000000000000000000600052603260045260246000fd5b906000526020600020016000905560028360ff1681548110610916577f4e487b7100000000000000000000000000000000000000000000000000000000600052603260045260246000fd5b90600052602060002001600090556001935050505b808061093690611383565b9150506106bf565b506001151581151514610986576040517f08c379a000000000000000000000000000000000000000000000000000000000815260040161097d90611147565b60405180910390fd5b50505050565b60008054906101000a900473ffffffffffffffffffffffffffffffffffffffff1673ffffffffffffffffffffffffffffffffffffffff163373ffffffffffffffffffffffffffffffffffffffff16146109e457600080fd5b60024290806001815401808255809150506001900390600052602060002001600090919091909150556001838383604051602001610a2493929190611048565b604051602081830303815290604052805190602001209080600181540180825580915050600190039060005260206000200160009091909190915055505050565b60008054906101000a900473ffffffffffffffffffffffffffffffffffffffff1681565b60008054906101000a900473ffffffffffffffffffffffffffffffffffffffff1673ffffffffffffffffffffffffffffffffffffffff163373ffffffffffffffffffffffffffffffffffffffff1614610ae157600080fd5b60005b6002805490508160ff161015610bb0576d04ee2d6d415b85acef80ffffffff60028260ff1681548110610b40577f4e487b7100000000000000000000000000000000000000000000000000000000600052603260045260246000fd5b90600052602060002001819055506000801b60018260ff1681548110610b8f577f4e487b7100000000000000000000000000000000000000000000000000000000600052603260045260246000fd5b90600052602060002001819055508080610ba890611383565b915050610ae4565b50565b60018181548110610bc357600080fd5b906000526020600020016000915090505481565b600660009054906101000a900473ffffffffffffffffffffffffffffffffffffffff1681565b6000610c10610c0b846111d3565b6111a2565b90508083825260208201905082856020860282011115610c2f57600080fd5b60005b85811015610c5f5781610c458882610ca7565b845260208401935060208301925050600181019050610c32565b5050509392505050565b6000610c7c610c77846111ff565b6111a2565b905082815260208101848484011115610c9457600080fd5b610c9f848285611341565b509392505050565b600081359050610cb681611446565b92915050565b600081359050610ccb8161145d565b92915050565b600082601f830112610ce257600080fd5b8135610cf2848260208601610bfd565b91505092915050565b600081519050610d0a81611474565b92915050565b600082601f830112610d2157600080fd5b8135610d31848260208601610c69565b91505092915050565b600081359050610d498161148b565b92915050565b600081519050610d5e8161148b565b92915050565b600080600060608486031215610d7957600080fd5b6000610d8786828701610cbc565b9350506020610d9886828701610d3a565b925050604084013567ffffffffffffffff811115610db557600080fd5b610dc186828701610d10565b9150509250925092565b600060208284031215610ddd57600080fd5b600082013567ffffffffffffffff811115610df757600080fd5b610e0384828501610cd1565b91505092915050565b600060208284031215610e1e57600080fd5b6000610e2c84828501610cfb565b91505092915050565b600060208284031215610e4757600080fd5b6000610e5584828501610d3a565b91505092915050565b600060208284031215610e7057600080fd5b6000610e7e84828501610d4f565b91505092915050565b610e98610e93826112be565b6113ad565b82525050565b610ea7816112ac565b82525050565b610eb6816112dc565b82525050565b6000610ec78261122f565b610ed1818561123a565b9350610ee1818560208601611350565b80840191505092915050565b610ef68161131d565b82525050565b6000610f09602083611245565b91507f736f6d657468696e672077656e742077726f6e67202d207478206661696c65646000830152602082019050919050565b6000610f4960008361123a565b9150600082019050919050565b6000610f63602383611245565b91507f636f6e74656e7473206f6620746865207472616e73616374696f6e206368616e60008301527f67656400000000000000000000000000000000000000000000000000000000006020830152604082019050919050565b6000610fc9602983611245565b91507f596f752063616e206f6e6c79206578656375746520616674657220746865207460008301527f696d652064656c617900000000000000000000000000000000000000000000006020830152604082019050919050565b61102b81611306565b82525050565b61104261103d82611306565b6113d1565b82525050565b60006110548286610e87565b6014820191506110648285611031565b6020820191506110748284610ebc565b9150819050949350505050565b600061108d8284610ebc565b915081905092915050565b60006110a382610f3c565b9150819050919050565b60006020820190506110c26000830184610e9e565b92915050565b60006040820190506110dd6000830185610e9e565b6110ea6020830184611022565b9392505050565b60006020820190506111066000830184610ead565b92915050565b60006020820190506111216000830184610eed565b92915050565b6000602082019050818103600083015261114081610efc565b9050919050565b6000602082019050818103600083015261116081610f56565b9050919050565b6000602082019050818103600083015261118081610fbc565b9050919050565b600060208201905061119c6000830184611022565b92915050565b6000604051905081810181811067ffffffffffffffff821117156111c9576111c861140a565b5b8060405250919050565b600067ffffffffffffffff8211156111ee576111ed61140a565b5b602082029050602081019050919050565b600067ffffffffffffffff82111561121a5761121961140a565b5b601f19601f8301169050602081019050919050565b600081519050919050565b600081905092915050565b600082825260208201905092915050565b600061126182611306565b915061126c83611306565b9250827fffffffffffffffffffffffffffffffffffffffffffffffffffffffffffffffff038211156112a1576112a06113db565b5b828201905092915050565b60006112b7826112e6565b9050919050565b60006112c9826112e6565b9050919050565b60008115159050919050565b6000819050919050565b600073ffffffffffffffffffffffffffffffffffffffff82169050919050565b6000819050919050565b600060ff82169050919050565b60006113288261132f565b9050919050565b600061133a826112e6565b9050919050565b82818337600083830152505050565b60005b8381101561136e578082015181840152602081019050611353565b8381111561137d576000848401525b50505050565b600061138e82611310565b915060ff8214156113a2576113a16113db565b5b600182019050919050565b60006113b8826113bf565b9050919050565b60006113ca82611439565b9050919050565b6000819050919050565b7f4e487b7100000000000000000000000000000000000000000000000000000000600052601160045260246000fd5b7f4e487b7100000000000000000000000000000000000000000000000000000000600052604160045260246000fd5b60008160601b9050919050565b61144f816112ac565b811461145a57600080fd5b50565b611466816112be565b811461147157600080fd5b50565b61147d816112d0565b811461148857600080fd5b50565b61149481611306565b811461149f57600080fd5b5056fea26469706673582212208437daa62e6cb0422edaaeaaddad55f280d677c324baa7271ecd0b0286f6d6d164736f6c63430008000033",
  "linkReferences": {},
  "deployedLinkReferences": {}
}