{
  "_format": "hh-sol-artifact-1",
  "contractName": "wallet_saver",
  "sourceName": "contracts/wallet_saver_list_queue.sol",
  "abi": [
    {
      "inputs": [
        {
          "internalType": "uint256",
          "name": "_time_delay",
          "type": "uint256"
        },
        {
          "internalType": "address",
          "name": "_panic_address",
          "type": "address"
        },
        {
          "internalType": "address[]",
          "name": "_erc20s",
          "type": "address[]"
        }
      ],
      "stateMutability": "nonpayable",
      "type": "constructor"
    },
    {
      "inputs": [
        {
          "internalType": "address[]",
          "name": "_erc20s",
          "type": "address[]"
        }
      ],
      "name": "add_tokens",
      "outputs": [],
      "stateMutability": "nonpayable",
      "type": "function"
    },
    {
      "inputs": [
        {
          "internalType": "uint256",
          "name": "",
          "type": "uint256"
        }
      ],
      "name": "block_time_startes",
      "outputs": [
        {
          "internalType": "uint256",
          "name": "",
          "type": "uint256"
        }
      ],
      "stateMutability": "view",
      "type": "function"
    },
    {
      "inputs": [
        {
          "internalType": "address payable",
          "name": "_to",
          "type": "address"
        },
        {
          "internalType": "uint256",
          "name": "_value",
          "type": "uint256"
        },
        {
          "internalType": "bytes",
          "name": "_data",
          "type": "bytes"
        }
      ],
      "name": "execute_call",
      "outputs": [],
      "stateMutability": "payable",
      "type": "function"
    },
    {
      "inputs": [],
      "name": "owner",
      "outputs": [
        {
          "internalType": "address",
          "name": "",
          "type": "address"
        }
      ],
      "stateMutability": "view",
      "type": "function"
    },
    {
      "inputs": [],
      "name": "panic",
      "outputs": [],
      "stateMutability": "nonpayable",
      "type": "function"
    },
    {
      "inputs": [
        {
          "internalType": "address payable",
          "name": "_to",
          "type": "address"
        },
        {
          "internalType": "uint256",
          "name": "_value",
          "type": "uint256"
        },
        {
          "internalType": "bytes",
          "name": "_data",
          "type": "bytes"
        }
      ],
      "name": "queue",
      "outputs": [],
      "stateMutability": "nonpayable",
      "type": "function"
    },
    {
      "inputs": [],
      "name": "revert_all_txns",
      "outputs": [],
      "stateMutability": "nonpayable",
      "type": "function"
    },
    {
      "inputs": [],
      "name": "token",
      "outputs": [
        {
          "internalType": "contract IERC20",
          "name": "",
          "type": "address"
        }
      ],
      "stateMutability": "view",
      "type": "function"
    },
    {
      "inputs": [
        {
          "internalType": "uint256",
          "name": "",
          "type": "uint256"
        }
      ],
      "name": "tx_content_hashes",
      "outputs": [
        {
          "internalType": "bytes32",
          "name": "",
          "type": "bytes32"
        }
      ],
      "stateMutability": "view",
      "type": "function"
    },
    {
      "stateMutability": "payable",
      "type": "receive"
    }
  ],
  "bytecode": "0x60806040523480156200001157600080fd5b50604051620017263803806200172683398181016040528101906200003791906200025f565b336000806101000a81548173ffffffffffffffffffffffffffffffffffffffff021916908373ffffffffffffffffffffffffffffffffffffffff1602179055508260038190555081600460006101000a81548173ffffffffffffffffffffffffffffffffffffffff021916908373ffffffffffffffffffffffffffffffffffffffff1602179055508060059080519060200190620000d7929190620000e1565b50505050620003d2565b8280548282559060005260206000209081019282156200015d579160200282015b828111156200015c5782518260006101000a81548173ffffffffffffffffffffffffffffffffffffffff021916908373ffffffffffffffffffffffffffffffffffffffff1602179055509160200191906001019062000102565b5b5090506200016c919062000170565b5090565b5b808211156200018b57600081600090555060010162000171565b5090565b6000620001a6620001a08462000302565b620002ce565b90508083825260208201905082856020860282011115620001c657600080fd5b60005b85811015620001fa5781620001df888262000204565b845260208401935060208301925050600181019050620001c9565b5050509392505050565b60008151905062000215816200039e565b92915050565b600082601f8301126200022d57600080fd5b81516200023f8482602086016200018f565b91505092915050565b6000815190506200025981620003b8565b92915050565b6000806000606084860312156200027557600080fd5b6000620002858682870162000248565b9350506020620002988682870162000204565b925050604084015167ffffffffffffffff811115620002b657600080fd5b620002c4868287016200021b565b9150509250925092565b6000604051905081810181811067ffffffffffffffff82111715620002f857620002f76200036f565b5b8060405250919050565b600067ffffffffffffffff82111562000320576200031f6200036f565b5b602082029050602081019050919050565b60006200033e8262000345565b9050919050565b600073ffffffffffffffffffffffffffffffffffffffff82169050919050565b6000819050919050565b7f4e487b7100000000000000000000000000000000000000000000000000000000600052604160045260246000fd5b620003a98162000331565b8114620003b557600080fd5b50565b620003c38162000365565b8114620003cf57600080fd5b50565b61134480620003e26000396000f3fe60806040526004361061008a5760003560e01c80637e91f637116100595780637e91f6371461012f5780638da5cb5b14610158578063b45ea76414610183578063d4e966e21461019a578063fc0c546a146101d757610091565b80631b6eb5e1146100965780634700d305146100bf5780634bbaab20146100d6578063665137a91461011357610091565b3661009157005b600080fd5b3480156100a257600080fd5b506100bd60048036038101906100b89190610cec565b610202565b005b3480156100cb57600080fd5b506100d4610326565b005b3480156100e257600080fd5b506100fd60048036038101906100f89190610d56565b6105ad565b60405161010a9190610ff3565b60405180910390f35b61012d60048036038101906101289190610c85565b6105d1565b005b34801561013b57600080fd5b5061015660048036038101906101519190610c85565b6108ad565b005b34801561016457600080fd5b5061016d610986565b60405161017a9190610f39565b60405180910390f35b34801561018f57600080fd5b506101986109aa565b005b3480156101a657600080fd5b506101c160048036038101906101bc9190610d56565b610ad4565b6040516101ce9190610f7d565b60405180910390f35b3480156101e357600080fd5b506101ec610af8565b6040516101f99190610f98565b60405180910390f35b60008054906101000a900473ffffffffffffffffffffffffffffffffffffffff1673ffffffffffffffffffffffffffffffffffffffff163373ffffffffffffffffffffffffffffffffffffffff161461025a57600080fd5b60005b81518160ff161015610322576005828260ff16815181106102a7577f4e487b7100000000000000000000000000000000000000000000000000000000600052603260045260246000fd5b60200260200101519080600181540180825580915050600190039060005260206000200160009091909190916101000a81548173ffffffffffffffffffffffffffffffffffffffff021916908373ffffffffffffffffffffffffffffffffffffffff160217905550808061031a906111ef565b91505061025d565b5050565b60008054906101000a900473ffffffffffffffffffffffffffffffffffffffff1673ffffffffffffffffffffffffffffffffffffffff163373ffffffffffffffffffffffffffffffffffffffff161461037e57600080fd5b60005b6005805490508160ff1610156105aa5760058160ff16815481106103ce577f4e487b7100000000000000000000000000000000000000000000000000000000600052603260045260246000fd5b9060005260206000200160009054906101000a900473ffffffffffffffffffffffffffffffffffffffff1673ffffffffffffffffffffffffffffffffffffffff1663a9059cbb600460009054906101000a900473ffffffffffffffffffffffffffffffffffffffff1660058460ff1681548110610474577f4e487b7100000000000000000000000000000000000000000000000000000000600052603260045260246000fd5b9060005260206000200160009054906101000a900473ffffffffffffffffffffffffffffffffffffffff1673ffffffffffffffffffffffffffffffffffffffff166370a08231306040518263ffffffff1660e01b81526004016104d79190610f39565b60206040518083038186803b1580156104ef57600080fd5b505afa158015610503573d6000803e3d6000fd5b505050506040513d601f19601f820116820180604052508101906105279190610d7f565b6040518363ffffffff1660e01b8152600401610544929190610f54565b602060405180830381600087803b15801561055e57600080fd5b505af1158015610572573d6000803e3d6000fd5b505050506040513d601f19601f820116820180604052508101906105969190610d2d565b5080806105a2906111ef565b915050610381565b50565b600281815481106105bd57600080fd5b906000526020600020016000915090505481565b60008054906101000a900473ffffffffffffffffffffffffffffffffffffffff1673ffffffffffffffffffffffffffffffffffffffff163373ffffffffffffffffffffffffffffffffffffffff161461062957600080fd5b60005b6002805490508160ff1610156108a75760018160ff1681548110610679577f4e487b7100000000000000000000000000000000000000000000000000000000600052603260045260246000fd5b906000526020600020015484848460405160200161069993929190610ee9565b6040516020818303038152906040528051906020012014156108945760035460028260ff16815481106106f5577f4e487b7100000000000000000000000000000000000000000000000000000000600052603260045260246000fd5b906000526020600020015461070a91906110c2565b421161074b576040517f08c379a000000000000000000000000000000000000000000000000000000000815260040161074290610fd3565b60405180910390fd5b6000808573ffffffffffffffffffffffffffffffffffffffff1685856040516107749190610f22565b60006040518083038185875af1925050503d80600081146107b1576040519150601f19603f3d011682016040523d82523d6000602084013e6107b6565b606091505b5091509150816107fb576040517f08c379a00000000000000000000000000000000000000000000000000000000081526004016107f290610fb3565b60405180910390fd5b60018360ff1681548110610838577f4e487b7100000000000000000000000000000000000000000000000000000000600052603260045260246000fd5b906000526020600020016000905560028360ff1681548110610883577f4e487b7100000000000000000000000000000000000000000000000000000000600052603260045260246000fd5b906000526020600020016000905550505b808061089f906111ef565b91505061062c565b50505050565b60008054906101000a900473ffffffffffffffffffffffffffffffffffffffff1673ffffffffffffffffffffffffffffffffffffffff163373ffffffffffffffffffffffffffffffffffffffff161461090557600080fd5b6002429080600181540180825580915050600190039060005260206000200160009091909190915055600183838360405160200161094593929190610ee9565b604051602081830303815290604052805190602001209080600181540180825580915050600190039060005260206000200160009091909190915055505050565b60008054906101000a900473ffffffffffffffffffffffffffffffffffffffff1681565b60008054906101000a900473ffffffffffffffffffffffffffffffffffffffff1673ffffffffffffffffffffffffffffffffffffffff163373ffffffffffffffffffffffffffffffffffffffff1614610a0257600080fd5b60005b6002805490508160ff161015610ad1576d04ee2d6d415b85acef80ffffffff60028260ff1681548110610a61577f4e487b7100000000000000000000000000000000000000000000000000000000600052603260045260246000fd5b90600052602060002001819055506000801b60018260ff1681548110610ab0577f4e487b7100000000000000000000000000000000000000000000000000000000600052603260045260246000fd5b90600052602060002001819055508080610ac9906111ef565b915050610a05565b50565b60018181548110610ae457600080fd5b906000526020600020016000915090505481565b600660009054906101000a900473ffffffffffffffffffffffffffffffffffffffff1681565b6000610b31610b2c8461103f565b61100e565b90508083825260208201905082856020860282011115610b5057600080fd5b60005b85811015610b805781610b668882610bc8565b845260208401935060208301925050600181019050610b53565b5050509392505050565b6000610b9d610b988461106b565b61100e565b905082815260208101848484011115610bb557600080fd5b610bc08482856111ad565b509392505050565b600081359050610bd7816112b2565b92915050565b600081359050610bec816112c9565b92915050565b600082601f830112610c0357600080fd5b8135610c13848260208601610b1e565b91505092915050565b600081519050610c2b816112e0565b92915050565b600082601f830112610c4257600080fd5b8135610c52848260208601610b8a565b91505092915050565b600081359050610c6a816112f7565b92915050565b600081519050610c7f816112f7565b92915050565b600080600060608486031215610c9a57600080fd5b6000610ca886828701610bdd565b9350506020610cb986828701610c5b565b925050604084013567ffffffffffffffff811115610cd657600080fd5b610ce286828701610c31565b9150509250925092565b600060208284031215610cfe57600080fd5b600082013567ffffffffffffffff811115610d1857600080fd5b610d2484828501610bf2565b91505092915050565b600060208284031215610d3f57600080fd5b6000610d4d84828501610c1c565b91505092915050565b600060208284031215610d6857600080fd5b6000610d7684828501610c5b565b91505092915050565b600060208284031215610d9157600080fd5b6000610d9f84828501610c70565b91505092915050565b610db9610db48261112a565b611219565b82525050565b610dc881611118565b82525050565b610dd781611148565b82525050565b6000610de88261109b565b610df281856110a6565b9350610e028185602086016111bc565b80840191505092915050565b610e1781611189565b82525050565b6000610e2a6020836110b1565b91507f736f6d657468696e672077656e742077726f6e67202d207478206661696c65646000830152602082019050919050565b6000610e6a6029836110b1565b91507f596f752063616e206f6e6c79206578656375746520616674657220746865207460008301527f696d652064656c617900000000000000000000000000000000000000000000006020830152604082019050919050565b610ecc81611172565b82525050565b610ee3610ede82611172565b61123d565b82525050565b6000610ef58286610da8565b601482019150610f058285610ed2565b602082019150610f158284610ddd565b9150819050949350505050565b6000610f2e8284610ddd565b915081905092915050565b6000602082019050610f4e6000830184610dbf565b92915050565b6000604082019050610f696000830185610dbf565b610f766020830184610ec3565b9392505050565b6000602082019050610f926000830184610dce565b92915050565b6000602082019050610fad6000830184610e0e565b92915050565b60006020820190508181036000830152610fcc81610e1d565b9050919050565b60006020820190508181036000830152610fec81610e5d565b9050919050565b60006020820190506110086000830184610ec3565b92915050565b6000604051905081810181811067ffffffffffffffff8211171561103557611034611276565b5b8060405250919050565b600067ffffffffffffffff82111561105a57611059611276565b5b602082029050602081019050919050565b600067ffffffffffffffff82111561108657611085611276565b5b601f19601f8301169050602081019050919050565b600081519050919050565b600081905092915050565b600082825260208201905092915050565b60006110cd82611172565b91506110d883611172565b9250827fffffffffffffffffffffffffffffffffffffffffffffffffffffffffffffffff0382111561110d5761110c611247565b5b828201905092915050565b600061112382611152565b9050919050565b600061113582611152565b9050919050565b60008115159050919050565b6000819050919050565b600073ffffffffffffffffffffffffffffffffffffffff82169050919050565b6000819050919050565b600060ff82169050919050565b60006111948261119b565b9050919050565b60006111a682611152565b9050919050565b82818337600083830152505050565b60005b838110156111da5780820151818401526020810190506111bf565b838111156111e9576000848401525b50505050565b60006111fa8261117c565b915060ff82141561120e5761120d611247565b5b600182019050919050565b60006112248261122b565b9050919050565b6000611236826112a5565b9050919050565b6000819050919050565b7f4e487b7100000000000000000000000000000000000000000000000000000000600052601160045260246000fd5b7f4e487b7100000000000000000000000000000000000000000000000000000000600052604160045260246000fd5b60008160601b9050919050565b6112bb81611118565b81146112c657600080fd5b50565b6112d28161112a565b81146112dd57600080fd5b50565b6112e98161113c565b81146112f457600080fd5b50565b61130081611172565b811461130b57600080fd5b5056fea2646970667358221220feac45f2e568a1ffec86f9f08ceb15019e37e11798fa1bf144a6fd14f08715e164736f6c63430008000033",
  "linkReferences": {},
  "deployedLinkReferences": {}
}