{
  "_format": "hh-sol-artifact-1",
  "contractName": "wallet_saver",
  "sourceName": "contracts/wallet_saver.sol",
  "abi": [
    {
      "inputs": [
        {
          "internalType": "uint256",
          "name": "_time_delay",
          "type": "uint256"
        },
        {
          "internalType": "address",
          "name": "_panic_address",
          "type": "address"
        },
        {
          "internalType": "address[]",
          "name": "_erc20s",
          "type": "address[]"
        }
      ],
      "stateMutability": "nonpayable",
      "type": "constructor"
    },
    {
      "inputs": [
        {
          "internalType": "address[]",
          "name": "_erc20s",
          "type": "address[]"
        }
      ],
      "name": "add_tokens",
      "outputs": [],
      "stateMutability": "nonpayable",
      "type": "function"
    },
    {
      "inputs": [],
      "name": "block_time_start",
      "outputs": [
        {
          "internalType": "uint256",
          "name": "",
          "type": "uint256"
        }
      ],
      "stateMutability": "view",
      "type": "function"
    },
    {
      "inputs": [
        {
          "internalType": "address payable",
          "name": "_to",
          "type": "address"
        },
        {
          "internalType": "uint256",
          "name": "_value",
          "type": "uint256"
        },
        {
          "internalType": "bytes",
          "name": "_data",
          "type": "bytes"
        }
      ],
      "name": "execute_call",
      "outputs": [],
      "stateMutability": "payable",
      "type": "function"
    },
    {
      "inputs": [],
      "name": "owner",
      "outputs": [
        {
          "internalType": "address",
          "name": "",
          "type": "address"
        }
      ],
      "stateMutability": "view",
      "type": "function"
    },
    {
      "inputs": [],
      "name": "panic",
      "outputs": [],
      "stateMutability": "nonpayable",
      "type": "function"
    },
    {
      "inputs": [
        {
          "internalType": "address payable",
          "name": "_to",
          "type": "address"
        },
        {
          "internalType": "uint256",
          "name": "_value",
          "type": "uint256"
        },
        {
          "internalType": "bytes",
          "name": "_data",
          "type": "bytes"
        }
      ],
      "name": "queue",
      "outputs": [],
      "stateMutability": "nonpayable",
      "type": "function"
    },
    {
      "inputs": [],
      "name": "revert_txn",
      "outputs": [],
      "stateMutability": "nonpayable",
      "type": "function"
    },
    {
      "inputs": [],
      "name": "token",
      "outputs": [
        {
          "internalType": "contract IERC20",
          "name": "",
          "type": "address"
        }
      ],
      "stateMutability": "view",
      "type": "function"
    },
    {
      "inputs": [],
      "name": "tx_content_hash",
      "outputs": [
        {
          "internalType": "bytes32",
          "name": "",
          "type": "bytes32"
        }
      ],
      "stateMutability": "view",
      "type": "function"
    },
    {
      "stateMutability": "payable",
      "type": "receive"
    }
  ],
  "bytecode": "0x60806040523480156200001157600080fd5b50604051620016223803806200162283398181016040528101906200003791906200025f565b336000806101000a81548173ffffffffffffffffffffffffffffffffffffffff021916908373ffffffffffffffffffffffffffffffffffffffff1602179055508260038190555081600460006101000a81548173ffffffffffffffffffffffffffffffffffffffff021916908373ffffffffffffffffffffffffffffffffffffffff1602179055508060059080519060200190620000d7929190620000e1565b50505050620003d2565b8280548282559060005260206000209081019282156200015d579160200282015b828111156200015c5782518260006101000a81548173ffffffffffffffffffffffffffffffffffffffff021916908373ffffffffffffffffffffffffffffffffffffffff1602179055509160200191906001019062000102565b5b5090506200016c919062000170565b5090565b5b808211156200018b57600081600090555060010162000171565b5090565b6000620001a6620001a08462000302565b620002ce565b90508083825260208201905082856020860282011115620001c657600080fd5b60005b85811015620001fa5781620001df888262000204565b845260208401935060208301925050600181019050620001c9565b5050509392505050565b60008151905062000215816200039e565b92915050565b600082601f8301126200022d57600080fd5b81516200023f8482602086016200018f565b91505092915050565b6000815190506200025981620003b8565b92915050565b6000806000606084860312156200027557600080fd5b6000620002858682870162000248565b9350506020620002988682870162000204565b925050604084015167ffffffffffffffff811115620002b657600080fd5b620002c4868287016200021b565b9150509250925092565b6000604051905081810181811067ffffffffffffffff82111715620002f857620002f76200036f565b5b8060405250919050565b600067ffffffffffffffff82111562000320576200031f6200036f565b5b602082029050602081019050919050565b60006200033e8262000345565b9050919050565b600073ffffffffffffffffffffffffffffffffffffffff82169050919050565b6000819050919050565b7f4e487b7100000000000000000000000000000000000000000000000000000000600052604160045260246000fd5b620003a98162000331565b8114620003b557600080fd5b50565b620003c38162000365565b8114620003cf57600080fd5b50565b61124080620003e26000396000f3fe60806040526004361061008a5760003560e01c8063665137a911610059578063665137a9146101185780637e91f637146101345780638da5cb5b1461015d578063cc33830014610188578063fc0c546a146101b357610091565b80631b6eb5e11461009657806339170a78146100bf5780634700d305146100ea5780635cffcab71461010157610091565b3661009157005b600080fd5b3480156100a257600080fd5b506100bd60048036038101906100b89190610b5c565b6101de565b005b3480156100cb57600080fd5b506100d4610302565b6040516100e19190610eef565b60405180910390f35b3480156100f657600080fd5b506100ff610308565b005b34801561010d57600080fd5b50610116610661565b005b610132600480360381019061012d9190610af5565b6106db565b005b34801561014057600080fd5b5061015b60048036038101906101569190610af5565b6108a9565b005b34801561016957600080fd5b5061017261093e565b60405161017f9190610e15565b60405180910390f35b34801561019457600080fd5b5061019d610962565b6040516101aa9190610e59565b60405180910390f35b3480156101bf57600080fd5b506101c8610968565b6040516101d59190610e74565b60405180910390f35b60008054906101000a900473ffffffffffffffffffffffffffffffffffffffff1673ffffffffffffffffffffffffffffffffffffffff163373ffffffffffffffffffffffffffffffffffffffff161461023657600080fd5b60005b81518160ff1610156102fe576005828260ff1681518110610283577f4e487b7100000000000000000000000000000000000000000000000000000000600052603260045260246000fd5b60200260200101519080600181540180825580915050600190039060005260206000200160009091909190916101000a81548173ffffffffffffffffffffffffffffffffffffffff021916908373ffffffffffffffffffffffffffffffffffffffff16021790555080806102f6906110eb565b915050610239565b5050565b60025481565b60008054906101000a900473ffffffffffffffffffffffffffffffffffffffff1673ffffffffffffffffffffffffffffffffffffffff163373ffffffffffffffffffffffffffffffffffffffff161461036057600080fd5b600080600460009054906101000a900473ffffffffffffffffffffffffffffffffffffffff1673ffffffffffffffffffffffffffffffffffffffff16476040516103a990610e00565b60006040518083038185875af1925050503d80600081146103e6576040519150601f19603f3d011682016040523d82523d6000602084013e6103eb565b606091505b509150915081610430576040517f08c379a000000000000000000000000000000000000000000000000000000000815260040161042790610e8f565b60405180910390fd5b60005b6005805490508160ff16101561065c5760058160ff1681548110610480577f4e487b7100000000000000000000000000000000000000000000000000000000600052603260045260246000fd5b9060005260206000200160009054906101000a900473ffffffffffffffffffffffffffffffffffffffff1673ffffffffffffffffffffffffffffffffffffffff1663a9059cbb600460009054906101000a900473ffffffffffffffffffffffffffffffffffffffff1660058460ff1681548110610526577f4e487b7100000000000000000000000000000000000000000000000000000000600052603260045260246000fd5b9060005260206000200160009054906101000a900473ffffffffffffffffffffffffffffffffffffffff1673ffffffffffffffffffffffffffffffffffffffff166370a08231306040518263ffffffff1660e01b81526004016105899190610e15565b60206040518083038186803b1580156105a157600080fd5b505afa1580156105b5573d6000803e3d6000fd5b505050506040513d601f19601f820116820180604052508101906105d99190610bc6565b6040518363ffffffff1660e01b81526004016105f6929190610e30565b602060405180830381600087803b15801561061057600080fd5b505af1158015610624573d6000803e3d6000fd5b505050506040513d601f19601f820116820180604052508101906106489190610b9d565b508080610654906110eb565b915050610433565b505050565b60008054906101000a900473ffffffffffffffffffffffffffffffffffffffff1673ffffffffffffffffffffffffffffffffffffffff163373ffffffffffffffffffffffffffffffffffffffff16146106b957600080fd5b6ec097ce7bc90715b34b9f0fffffffff6002819055506000801b600181905550565b60008054906101000a900473ffffffffffffffffffffffffffffffffffffffff1673ffffffffffffffffffffffffffffffffffffffff163373ffffffffffffffffffffffffffffffffffffffff161461073357600080fd5b6003546002546107439190610fbe565b4211610784576040517f08c379a000000000000000000000000000000000000000000000000000000000815260040161077b90610ecf565b60405180910390fd5b60015483838360405160200161079c93929190610db0565b60405160208183030381529060405280519060200120146107f2576040517f08c379a00000000000000000000000000000000000000000000000000000000081526004016107e990610eaf565b60405180910390fd5b6000808473ffffffffffffffffffffffffffffffffffffffff16848460405161081b9190610de9565b60006040518083038185875af1925050503d8060008114610858576040519150601f19603f3d011682016040523d82523d6000602084013e61085d565b606091505b5091509150816108a2576040517f08c379a000000000000000000000000000000000000000000000000000000000815260040161089990610e8f565b60405180910390fd5b5050505050565b60008054906101000a900473ffffffffffffffffffffffffffffffffffffffff1673ffffffffffffffffffffffffffffffffffffffff163373ffffffffffffffffffffffffffffffffffffffff161461090157600080fd5b4260028190555082828260405160200161091d93929190610db0565b60405160208183030381529060405280519060200120600181905550505050565b60008054906101000a900473ffffffffffffffffffffffffffffffffffffffff1681565b60015481565b600660009054906101000a900473ffffffffffffffffffffffffffffffffffffffff1681565b60006109a161099c84610f3b565b610f0a565b905080838252602082019050828560208602820111156109c057600080fd5b60005b858110156109f057816109d68882610a38565b8452602084019350602083019250506001810190506109c3565b5050509392505050565b6000610a0d610a0884610f67565b610f0a565b905082815260208101848484011115610a2557600080fd5b610a308482856110a9565b509392505050565b600081359050610a47816111ae565b92915050565b600081359050610a5c816111c5565b92915050565b600082601f830112610a7357600080fd5b8135610a8384826020860161098e565b91505092915050565b600081519050610a9b816111dc565b92915050565b600082601f830112610ab257600080fd5b8135610ac28482602086016109fa565b91505092915050565b600081359050610ada816111f3565b92915050565b600081519050610aef816111f3565b92915050565b600080600060608486031215610b0a57600080fd5b6000610b1886828701610a4d565b9350506020610b2986828701610acb565b925050604084013567ffffffffffffffff811115610b4657600080fd5b610b5286828701610aa1565b9150509250925092565b600060208284031215610b6e57600080fd5b600082013567ffffffffffffffff811115610b8857600080fd5b610b9484828501610a62565b91505092915050565b600060208284031215610baf57600080fd5b6000610bbd84828501610a8c565b91505092915050565b600060208284031215610bd857600080fd5b6000610be684828501610ae0565b91505092915050565b610c00610bfb82611026565b611115565b82525050565b610c0f81611014565b82525050565b610c1e81611044565b82525050565b6000610c2f82610f97565b610c398185610fa2565b9350610c498185602086016110b8565b80840191505092915050565b610c5e81611085565b82525050565b6000610c71602083610fad565b91507f736f6d657468696e672077656e742077726f6e67202d207478206661696c65646000830152602082019050919050565b6000610cb1600083610fa2565b9150600082019050919050565b6000610ccb602383610fad565b91507f636f6e74656e7473206f6620746865207472616e73616374696f6e206368616e60008301527f67656400000000000000000000000000000000000000000000000000000000006020830152604082019050919050565b6000610d31602983610fad565b91507f596f752063616e206f6e6c79206578656375746520616674657220746865207460008301527f696d652064656c617900000000000000000000000000000000000000000000006020830152604082019050919050565b610d938161106e565b82525050565b610daa610da58261106e565b611139565b82525050565b6000610dbc8286610bef565b601482019150610dcc8285610d99565b602082019150610ddc8284610c24565b9150819050949350505050565b6000610df58284610c24565b915081905092915050565b6000610e0b82610ca4565b9150819050919050565b6000602082019050610e2a6000830184610c06565b92915050565b6000604082019050610e456000830185610c06565b610e526020830184610d8a565b9392505050565b6000602082019050610e6e6000830184610c15565b92915050565b6000602082019050610e896000830184610c55565b92915050565b60006020820190508181036000830152610ea881610c64565b9050919050565b60006020820190508181036000830152610ec881610cbe565b9050919050565b60006020820190508181036000830152610ee881610d24565b9050919050565b6000602082019050610f046000830184610d8a565b92915050565b6000604051905081810181811067ffffffffffffffff82111715610f3157610f30611172565b5b8060405250919050565b600067ffffffffffffffff821115610f5657610f55611172565b5b602082029050602081019050919050565b600067ffffffffffffffff821115610f8257610f81611172565b5b601f19601f8301169050602081019050919050565b600081519050919050565b600081905092915050565b600082825260208201905092915050565b6000610fc98261106e565b9150610fd48361106e565b9250827fffffffffffffffffffffffffffffffffffffffffffffffffffffffffffffffff0382111561100957611008611143565b5b828201905092915050565b600061101f8261104e565b9050919050565b60006110318261104e565b9050919050565b60008115159050919050565b6000819050919050565b600073ffffffffffffffffffffffffffffffffffffffff82169050919050565b6000819050919050565b600060ff82169050919050565b600061109082611097565b9050919050565b60006110a28261104e565b9050919050565b82818337600083830152505050565b60005b838110156110d65780820151818401526020810190506110bb565b838111156110e5576000848401525b50505050565b60006110f682611078565b915060ff82141561110a57611109611143565b5b600182019050919050565b600061112082611127565b9050919050565b6000611132826111a1565b9050919050565b6000819050919050565b7f4e487b7100000000000000000000000000000000000000000000000000000000600052601160045260246000fd5b7f4e487b7100000000000000000000000000000000000000000000000000000000600052604160045260246000fd5b60008160601b9050919050565b6111b781611014565b81146111c257600080fd5b50565b6111ce81611026565b81146111d957600080fd5b50565b6111e581611038565b81146111f057600080fd5b50565b6111fc8161106e565b811461120757600080fd5b5056fea2646970667358221220662d6e8a431a5cc274c97debb1f2d5352e3eac36c814b3f59d4b3ea97042582e64736f6c63430008000033",
  "linkReferences": {},
  "deployedLinkReferences": {}
}