{
  "_format": "hh-sol-artifact-1",
  "contractName": "wallet_saver",
  "sourceName": "contracts/wallet_saver.sol",
  "abi": [
    {
      "inputs": [
        {
          "internalType": "uint256",
          "name": "_time_delay",
          "type": "uint256"
        }
      ],
      "stateMutability": "nonpayable",
      "type": "constructor"
    },
    {
      "inputs": [
        {
          "internalType": "address payable",
          "name": "_to",
          "type": "address"
        },
        {
          "internalType": "uint256",
          "name": "_value",
          "type": "uint256"
        },
        {
          "internalType": "bytes",
          "name": "_data",
          "type": "bytes"
        }
      ],
      "name": "execute_call",
      "outputs": [],
      "stateMutability": "payable",
      "type": "function"
    },
    {
      "inputs": [],
      "name": "owner",
      "outputs": [
        {
          "internalType": "address",
          "name": "",
          "type": "address"
        }
      ],
      "stateMutability": "view",
      "type": "function"
    },
    {
      "inputs": [
        {
          "internalType": "address payable",
          "name": "_to",
          "type": "address"
        },
        {
          "internalType": "uint256",
          "name": "_value",
          "type": "uint256"
        },
        {
          "internalType": "bytes",
          "name": "_data",
          "type": "bytes"
        }
      ],
      "name": "queue",
      "outputs": [],
      "stateMutability": "nonpayable",
      "type": "function"
    },
    {
      "stateMutability": "payable",
      "type": "receive"
    }
  ],
  "bytecode": "0x608060405234801561001057600080fd5b5060405161078138038061078183398181016040528101906100329190610094565b336000806101000a81548173ffffffffffffffffffffffffffffffffffffffff021916908373ffffffffffffffffffffffffffffffffffffffff16021790555080600381905550506100de565b60008151905061008e816100c7565b92915050565b6000602082840312156100a657600080fd5b60006100b48482850161007f565b91505092915050565b6000819050919050565b6100d0816100bd565b81146100db57600080fd5b50565b610694806100ed6000396000f3fe6080604052600436106100385760003560e01c8063665137a9146100445780637e91f637146100605780638da5cb5b146100895761003f565b3661003f57005b600080fd5b61005e6004803603810190610059919061030e565b6100b4565b005b34801561006c57600080fd5b506100876004803603810190610082919061030e565b6101c3565b005b34801561009557600080fd5b5061009e610258565b6040516100ab9190610473565b60405180910390f35b60008054906101000a900473ffffffffffffffffffffffffffffffffffffffff1673ffffffffffffffffffffffffffffffffffffffff163373ffffffffffffffffffffffffffffffffffffffff161461010c57600080fd5b6000808473ffffffffffffffffffffffffffffffffffffffff168484604051610135919061045c565b60006040518083038185875af1925050503d8060008114610172576040519150601f19603f3d011682016040523d82523d6000602084013e610177565b606091505b5091509150816101bc576040517f08c379a00000000000000000000000000000000000000000000000000000000081526004016101b39061048e565b60405180910390fd5b5050505050565b60008054906101000a900473ffffffffffffffffffffffffffffffffffffffff1673ffffffffffffffffffffffffffffffffffffffff163373ffffffffffffffffffffffffffffffffffffffff161461021b57600080fd5b4260028190555082828260405160200161023793929190610423565b60405160208183030381529060405280519060200120600181905550505050565b60008054906101000a900473ffffffffffffffffffffffffffffffffffffffff1681565b600061028f61028a846104df565b6104ae565b9050828152602081018484840111156102a757600080fd5b6102b2848285610584565b509392505050565b6000813590506102c981610630565b92915050565b600082601f8301126102e057600080fd5b81356102f084826020860161027c565b91505092915050565b60008135905061030881610647565b92915050565b60008060006060848603121561032357600080fd5b6000610331868287016102ba565b9350506020610342868287016102f9565b925050604084013567ffffffffffffffff81111561035f57600080fd5b61036b868287016102cf565b9150509250925092565b61038661038182610548565b6105c6565b82525050565b61039581610536565b82525050565b60006103a68261050f565b6103b0818561051a565b93506103c0818560208601610593565b80840191505092915050565b60006103d9602083610525565b91507f736f6d657468696e672077656e742077726f6e67202d207478206661696c65646000830152602082019050919050565b61041d6104188261057a565b6105ea565b82525050565b600061042f8286610375565b60148201915061043f828561040c565b60208201915061044f828461039b565b9150819050949350505050565b6000610468828461039b565b915081905092915050565b6000602082019050610488600083018461038c565b92915050565b600060208201905081810360008301526104a7816103cc565b9050919050565b6000604051905081810181811067ffffffffffffffff821117156104d5576104d46105f4565b5b8060405250919050565b600067ffffffffffffffff8211156104fa576104f96105f4565b5b601f19601f8301169050602081019050919050565b600081519050919050565b600081905092915050565b600082825260208201905092915050565b60006105418261055a565b9050919050565b60006105538261055a565b9050919050565b600073ffffffffffffffffffffffffffffffffffffffff82169050919050565b6000819050919050565b82818337600083830152505050565b60005b838110156105b1578082015181840152602081019050610596565b838111156105c0576000848401525b50505050565b60006105d1826105d8565b9050919050565b60006105e382610623565b9050919050565b6000819050919050565b7f4e487b7100000000000000000000000000000000000000000000000000000000600052604160045260246000fd5b60008160601b9050919050565b61063981610548565b811461064457600080fd5b50565b6106508161057a565b811461065b57600080fd5b5056fea2646970667358221220debab28e58a09e3a704683bdc6f0828232d864877360b0697c5f88c4e2104dcf64736f6c63430008000033",
  "linkReferences": {},
  "deployedLinkReferences": {}
}